:020000040800F2
:10000000000002202107000871070008710700089E
:100010007107000871070008710700080000000060
:100020000000000000000000000000007107000850
:100030007107000800000000710700087107000840
:1000400071070008710700087107000871070008B0
:1000500071070008710700087107000871070008A0
:100060007107000871070008710700087107000890
:100070007107000871070008710700087107000880
:1000800071070008710700087107000800000000F0
:1000900000000000000000000000000071070008E0
:1000A0007107000871070008710700087107000850
:1000B0007107000871070008710700087107000840
:1000C0007107000871070008710700087107000830
:1000D00071070008710700087107000800000000A0
:1000E0007107000871070008710700080000000090
:1000F0000000000000000000000000007107000880
:10010000000000007107000871070008710700086F
:1001100000000000000000000000000000000000DF
:1001200071070008710700087107000871070008CF
:10013000710700080000000000000000000000003F
:10014000000000000000000000000000710700082F
:10015000710700087107000871070008710700089F
:10016000710700087107000800000000000000008F
:10017000000000000000000000000000000000007F
:1001800000000000710700080000000000000000EF
:08019000710700087107000867
:1001980010B5054C237833B9044B13B10448AFF3B9
:1001A80000800123237010BD000000200000000023
:1001B800BC07000808B5034B1BB103490348AFF35C
:1001C800008008BD0000000004000020BC070008F3
:1001D800034AD2F8883043F47003C2F88830704775
:1001E80000ED00E02DE9F04700F0AEF900F024FA48
:1001F8000026B146354637464FF001084FF0FF3428
:1002080059E1A34800F07CFAA24BD3F8103813F454
:10021800806F00F05981B8F1000F40F05581631CE0
:100228009D4A82FB0312DC17C4EB620404EB8404CE
:100238001C1B4FF0010847E1984A136843F0040378
:100248001360964B1B6813F00C0F7DD1914BD3F8BC
:10025800103413F0020F7CD0DFF838A22023CAF83C
:1002680018308B4800F04CFA4FF40033CAF81834B1
:10027800DAF8103413F0020F02D0002F00F0938048
:10028800844B4FF400129A6163E0844A136843F088
:1002980010031360D5E7814A136843F040031360E5
:1002A800CFE77E4B1A6822F00C021A601A6822F017
:1002B80030021A601A6822F0C0021A60C1E7774B50
:1002C8001A6842F004021A601A6842F010021A60B2
:1002D8001A6842F040021A600136F6B2B1E7042CFF
:1002E800AFD8DFE804F003090F1523006B4A136841
:1002F80023F00C031360A4E7684A136823F0300363
:1003080013609EE7654A136823F0C003136098E7FB
:10031800624B1A6822F00C021A601A6822F0300246
:100328001A601A6822F0C0021A608AE75B4B1A68E2
:1003380042F004021A601A6842F010021A601A6841
:1003480042F040021A607CE7524B4FF400129A6167
:100358000027524B1B6803F00C03042B25D04F4B8E
:100368001B6813F0300F40D14A4BD3F8103413F008
:10037800040F3FD0DFF81CA14FF48063CAF818308F
:10038800434800F0BDF94FF48023CAF81834DAF86E
:10039800103413F0040F01D0002D56D03D4B4FF010
:1003A80080629A6126E00127D3E73A4B0222C3F81C
:1003B8001824D3F8103413F0020F05D1354B4FF43D
:1003C80000129A610027CAE7314800F099F9314BC9
:1003D800D3F8103413F0020FC1D0002FBFD12D4B2A
:1003E8000222C3F818240127B9E72A4B4FF080628C
:1003F8009A610025294B1B6803F03003102B26D087
:10040800264B1B6813F0C00F4AD1224BD3F8103487
:1004180013F0080F49D0DFF87CA04FF40063CAF846
:1004280018301B4800F06CF94FF40023CAF8183450
:10043800DAF8103413F0080F02D0B9F1000F57D0D2
:10044800144B4FF000629A612FE00125D2E7114B5F
:100458000422C3F81824D3F8103413F0040F05D17C
:100468000C4B4FF080629A610025C9E7084800F0FC
:1004780047F9084BD3F8103413F0040FC0D0002DFF
:10048800BED1044B0422C3F818240125B8E700BFE5
:10049800E0930400000002406766666600040240BC
:1004A800264B4FF000629A610025254B1B6803F02C
:1004B800C003402B1FD0214BD3F8103813F4806FA2
:1004C8007FF49FAE4FF00008002E7FF408AF042C95
:1004D8003FF6B7AE01A353F824F000BF410200086D
:1004E800930200089F020008AB020008C702000838
:1004F8004FF00109D9E7114B0822C3F81824D3F8A3
:10050800103413F0080F12D00E4800F0F9F80B4B16
:10051800D3F8103413F0080FCDD0B9F1000FCAD1B9
:10052800064B0822C3F818244FF00109C3E7034B10
:100538004FF000629A614FF00009BCE700000240EA
:1005480000040240E0930400394A136B43F00703A8
:100558001363384B1A6822F00C021A60DA6822F02A
:100568000C02DA60DA6842F00402DA601A6822F0F3
:1005780030021A60DA6822F03002DA60DA6842F093
:100588001002DA601A6822F0C0021A60DA6822F0F3
:10059800C002DA60DA6842F04002DA6003F580638C
:1005A8001A6822F440121A60DA6822F44012DA60FB
:1005B800DA6842F48012DA60A3F500631A6822F45C
:1005C80040621A601A6842F480621A601A6822F45B
:1005D80040121A601A6842F480121A605A6822F4AB
:1005E80080625A609A6822F440129A609A6842F4CB
:1005F80000129A60DA6822F44012DA601A6822F46B
:1006080040021A601A6842F480021A605A6822F49A
:1006180000625A609A6822F440029A609A6842F42A
:1006280000029A60DA6822F44002DA60704700BF7C
:1006380000380240000402402E4AD2F8303843F015
:100648000703C2F830382C4BD3F8002422F00C01F1
:10065800C3F8001422F03C01C3F8001422F0FC0295
:10066800C3F80024D3F8002822F44012C3F8002865
:1006780022490A6822F00C020A60086820F030005B
:1006880008600243086820F0C00008600243C3F80D
:10069800002401F580610A6822F440120A60D3F848
:1006A8000C2422F00C01C3F80C1422F03C01C3F80E
:1006B8000C1422F0FC02C3F80C24D3F80C1821F413
:1006C8004011C3F80C1842F05402C3F80C2441F44A
:1006D8008011C3F80C181A6842F48061196042F45A
:1006E800A00242F480621A609A6842F470029A602A
:1006F800704700BF00300240000002400004024082
:1007080082B0019002E0019B013B0193019B002B09
:10071800F9D102B070470000DFF834D00D480E4917
:100728000E4A002302E0D458C4500433C4188C4243
:10073800F9D30B4A0B4C002301E013600432A242A8
:10074800FBD3FFF745FD00F011F8FFF74BFD7047AD
:10075800000002200000002000000020DC07000844
:10076800000000201C000020FEE7000070B50D4DC1
:100778000D4C641BA4100026A64209D10B4D0C4C4D
:1007880000F018F8641BA4100026A64205D170BD1D
:1007980055F8043B98470136EEE755F8043B98476F
:1007A8000136F2E7D4070008D4070008D407000888
:1007B800D8070008F8B500BFF8BC08BC9E467047CB
:0C07C800F8B500BFF8BC08BC9E467047A6
:0407D400BD0100085B
:0407D800990100087B
:0400000508000721C7
:00000001FF
