:020000040800F2
:1000000000000220B10400080105000801050008F5
:1000100001050008010500080105000800000000B6
:1000200000000000000000000000000001050008C2
:100030000105000800000000010500080105000896
:100040000105000801050008010500080105000878
:100050000105000801050008010500080105000868
:100060000105000801050008010500080105000858
:100070000105000801050008010500080105000848
:100080000105000801050008010500080000000046
:10009000000000000000000000000000190400083B
:1000A00001050008F103000801050008010500082A
:1000B0000105000801050008010500080105000808
:1000C00001050008010500080105000801050008F8
:1000D00001050008010500080105000800000000F6
:1000E00001050008010500080105000800000000E6
:1000F00000000000000000000000000001050008F2
:1001000000000000010500080105000801050008C5
:1001100000000000000000000000000000000000DF
:100120000105000801050008010500080105000897
:1001300001050008000000000000000000000000B1
:1001400000000000000000000000000001050008A1
:100150000105000801050008010500080105000867
:100160000105000801050008000000000000000073
:10017000000000000000000000000000000000007F
:100180000000000001050008000000000000000061
:0801900001050008010500084B
:1001980010B5054C237833B9044B13B10448AFF3B9
:1001A80000800123237010BD000000200000000023
:1001B8004C05000808B5034B1BB103490348AFF3CE
:1001C800008008BD00000000040000204C05000865
:1001D800034AD2F8883043F47003C2F88830704775
:1001E80000ED00E008B500F027F800F039F800F05D
:1001F8006BF800F091F8FEE700B500F00700C0F1D9
:10020800070CBCF1040F28BF4FF0040C031D062B8C
:100218000FD9C31E4FF0FF3E0EFA0CF021EA000181
:1002280099400EFA03FE22EA0E0241EA02005DF846
:1002380004FB0023EEE70000074B1A6B42F00202B2
:100248001A6306490A6822F470220A601A6B42F09F
:1002580004021A63704700BF0038024000040240DD
:1002680008B5154A536C43F480435364A2F58032B1
:10027800136923F0FF0343F0110313610F4B1A684E
:1002880042F440721A609A6842F440729A60DA68DE
:1002980042F44072DA600A4BD86800221146C0F373
:1002A8000220FFF7A9FF0001C0B2064B83F817032D
:1002B8004FF400021A6008BD00380240003C0140BB
:1002C80000ED00E000E100E0104A536C43F4003315
:1002D80053640F4B9A6A6FF30F0242F05F029A62FF
:1002E800DA6A40F2E732DA625A6942F001025A6188
:1002F800DA6842F00102DA60064A4FF000711160D4
:100308001A6842F001021A60704700BF00380240C4
:100318000044014000E100E0304B1A6B42F001025A
:100328001A635A6C42F001025A642D4A136823F486
:100338007F0343F42A031360536A6FF30F0341F2F8
:1003480011110B435362274B1A6822F001021A60FD
:100358009A6A6FF30F0242F004029A62DA6A40F274
:10036800E732DA621A6842F080021A609A6922F06B
:10037800780242F068029A619A6922F4F04242F4E3
:10038800D0429A61DA6922F0780242F06802DA61B2
:10039800DA6922F4F04242F4D042DA615A6C42F44B
:1003A80000425A641A6A0A431A625A6B6FF30F02C0
:1003B8005A639A6B6FF30F029A63DA6B6FF30F024B
:1003C800DA631A6C6FF30F021A645A6942F0010279
:1003D8005A611A6842F001021A60704700380240F8
:1003E8000000024000000140074B1B6913F0010F99
:1003F80008D0054A136923F001031361034A1368FF
:1004080001331360704700BF004401402C000020F6
:100418001E4B5B6913F4807F0CD01C4B4FF4807229
:100428005A611B4B1B681B4A126912F4807F14D156
:10043800194A1360154B5B6913F4007F24D0134BE2
:100448004FF400725A61124B1B68124A126912F477
:10045800007F0ED1114A136070470F4A12689B1A29
:10046800012B02D90E4B01221A700B4B00221A6085
:10047800E0E70A4A12689B1A012B02D9094B0122AC
:100488001A70064B00221A60704700BF003C0140FA
:100498002C000020000402401C0000202400002042
:1004A8002000002028000020DFF834D00D480E4935
:1004B8000E4A002302E0D458C4500433C4188C42B6
:1004C800F9D30B4A0B4C002301E013600432A2421B
:1004D800FBD3FFF77DFE00F011F8FFF783FE7047AE
:1004E8000000022000000020000000206C05000829
:1004F8000000002030000020FEE7000070B50D4D20
:100508000D4C641BA4100026A64209D10B4D0C4CBF
:1005180000F018F8641BA4100026A64205D170BD8F
:1005280055F8043B98470136EEE755F8043B9847E1
:100538000136F2E764050008640500086405000850
:1005480068050008F8B500BFF8BC08BC9E467047AF
:0C055800F8B500BFF8BC08BC9E46704718
:04056400BD010008CD
:0405680099010008ED
:04000005080004B13A
:00000001FF
