:020000040800F2
:1000000000000220F9010008490200084902000826
:1000100049020008490200084902000800000000E7
:10002000000000000000000000000000490200087D
:1000300049020008000000004902000849020008C7
:100040004902000849020008490200084902000864
:100050004902000849020008490200084902000854
:100060004902000849020008490200084902000844
:100070004902000849020008490200084902000834
:100080004902000849020008490200080000000077
:10009000000000000000000000000000490200080D
:1000A0004902000849020008490200084902000804
:1000B00049020008490200084902000849020008F4
:1000C00049020008490200084902000849020008E4
:1000D0004902000849020008490200080000000027
:1000E0004902000849020008490200080000000017
:1000F00000000000000000000000000049020008AD
:1001000000000000490200084902000849020008F6
:1001100000000000000000000000000000000000DF
:100120004902000849020008490200084902000883
:10013000490200080000000000000000000000006C
:10014000000000000000000000000000490200085C
:100150004902000849020008490200084902000853
:1001600049020008490200080000000000000000E9
:10017000000000000000000000000000000000007F
:10018000000000004902000800000000000000001C
:080190004902000849020008C1
:1001980010B5054C237833B9044B13B10448AFF3B9
:1001A80000800123237010BD000000200000000023
:1001B8009402000808B5034B1BB103490348AFF389
:1001C800008008BD00000000040000209402000820
:1001D800034AD2F8883043F47003C2F88830704775
:1001E80000ED00E0014B20229A61FBE7000002408D
:1001F800DFF834D00D480E490E4A002302E0D458E7
:10020800C4500433C4188C42F9D30B4A0B4C002356
:1002180001E013600432A242FBD3FFF7D9FF00F0DC
:1002280011F8FFF7DFFF70470000022000000020F0
:1002380000000020B4020008000000201C0000207C
:10024800FEE7000070B50D4D0D4C641BA410002690
:10025800A64209D10B4D0C4C00F018F8641BA410F1
:100268000026A64205D170BD55F8043B98470136D3
:10027800EEE755F8043B98470136F2E7AC02000870
:10028800AC020008AC020008B0020008F8B500BFD4
:10029800F8BC08BC9E467047F8B500BFF8BC08BC5F
:0402A8009E467047B7
:0402AC00BD01000888
:0402B00099010008A8
:04000005080001F9F5
:00000001FF
