:020000040800F2
:10000000000002202107000871070008710700089E
:100010007107000871070008710700080000000060
:100020000000000000000000000000007107000850
:10003000710700080000000071070008B9050008FA
:1000400071070008710700087107000871070008B0
:1000500071070008710700087107000871070008A0
:100060007107000871070008710700087107000890
:100070007107000871070008710700087107000880
:1000800071070008710700087107000800000000F0
:1000900000000000000000000000000071070008E0
:1000A0007107000871070008710700087107000850
:1000B0007107000871070008710700087107000840
:1000C0007107000871070008710700087107000830
:1000D00071070008710700087107000800000000A0
:1000E000D50500087107000871070008000000002E
:1000F0000000000000000000000000007107000880
:10010000000000007107000871070008710700086F
:1001100000000000000000000000000000000000DF
:1001200071070008710700087107000871070008CF
:10013000710700080000000000000000000000003F
:10014000000000000000000000000000710700082F
:10015000710700087107000871070008710700089F
:10016000710700087107000800000000000000008F
:10017000000000000000000000000000000000007F
:1001800000000000710700080000000000000000EF
:08019000710700087107000867
:1001980010B5054C237833B9044B13B10448AFF3B9
:1001A80000800123237010BD08000020000000001B
:1001B800BC07000808B5034B1BB103490348AFF35C
:1001C800008008BD000000000C000020BC070008EB
:1001D800034AD2F8883043F47003C2F88830704775
:1001E80000ED00E010B586B000F0D0F800F05CF942
:1001F80000F0D2F900F08CF900F054FA002000F079
:100208001FFA8AE0584B187800F01AFA46E0574B64
:1002180001221A70544B00221A70187800F010FA54
:100228003CE0534B1B68B3F5FA6F32D3504B1B6855
:10023800B3F57A6F2DD24F4B1B78002B2ED04E4939
:100248000A7801324D4B83FB020303EB4303D31AB5
:10025800DBB20B70002415E0009B01330093009A79
:10026800474B9A42F8D9404B187800F0E9F9002337
:10027800019302E0019B01330193019A404B9A429A
:10028800F8D90134022C09DC00F00CFA00230093A1
:10029800E5E7374B1B68B3F57A6F04D20023344A7D
:1002A800136004932EE0334A1378B3FA83F35B099F
:1002B800137013780BB100241AE02B4B187800F058
:1002C800BFF9F8E7029B01330293029A2D4B9A4239
:1002D800F8D9254B187800F0B3F90023039302E00E
:1002E800039B01330393039A264B9A42F8D90134AE
:1002F800022CD3DC00F0D6F900230293E5E7049B37
:1003080001330493049A204B9A42F8D900230593A9
:10031800059A4CF24F339A4221D900F0CBF9144B8D
:100328001B68002BF2D0124B1B68B3F57A7FBFF421
:1003380078AF0E4B1B78002B3FF469AF0A4A13784D
:100348000133DBB213701378DBB2052B7FF65AAF9B
:1003580000231370054A137000F0A4F99EE7059B6B
:1003680001330593D4E700BF2900002004000020D2
:10037800340000200500002028000020565555555F
:100388003F420F001FA107005FE31600424B1A6CA3
:1003980042F080521A64414A116821F440411160C8
:1003A800116841F44041116002F5E632116821F00C
:1003B80007011160116841F0030111601A6842F0E9
:1003C80001021A60344B1B6813F0020FFAD0324B4B
:1003D8009A6822F003029A609A689A602E4B9B688A
:1003E80013F00C0FFAD12C4A136823F080731360B2
:1003F800294B1B6813F0007FFAD1274B1A6822F4A7
:1004080050221A609A6822F47C4222F0F0029A6024
:100418009A6842F480529A605A6822F480025A60BC
:100428005A6822F03F025A605A6842F008025A603D
:100438005A686FF38E125A605A6842F448525A60EA
:100448005A6822F440325A605A6842F480325A603C
:100458005A6822F070625A605A6842F000625A6024
:100468001A6842F080721A600B4B1B6813F0007F09
:10047800FAD0094B9A6822F003029A609A6842F00F
:1004880002029A60044B9B6803F00C03082BF9D115
:10049800034B044A1A60704700380240007000405D
:1004A8000000002000E1F505174A136B43F0040330
:1004B8001363164B196821F440211960196841F437
:1004C80000211960596821F400715960996821F474
:1004D80040219960996841F440219960D96821F4D4
:1004E8004021D960596A21F0F0015962936823F0DC
:1004F80078439360936843F040439360936843F074
:1005080040539360704700BF003802400008024023
:100518001C4A136B43F0050313631B4B196821F046
:1005280040611960D96821F04061D960D96841F00B
:100538008061D96015490B6843F4AA1343F4A053AA
:100548000B60536C43F480435364A2F580325369C3
:1005580023F0F00343F0200353610D4B1A6842F473
:1005680000521A609A6842F400529A60DA6842F4BB
:100578000052DA60074B002283F828234FF4807278
:100588005A607047003802400008024000000240EC
:10059800003C014000E100E04FF0E02300221A6136
:1005A800024959619A6107221A6170479F860100C2
:1005B800024A136801331360704700BF2C00002003
:1005C800014B1868704700BF2C00002008B5164B77
:1005D8005B6913F4005F00D108BD134B4FF4005260
:1005E8005A61FFF7EDFF114B1B68C31A312BF3D982
:1005F8000F4B1B6913F4005F0DD00E4B1B78DBB259
:10060800012B0DD10C4B1B68C31A0C4A1360094B04
:1006180000221A7004E0084B1860064B01221A7079
:10062800024B1860D8E700BF003C01403C000020A6
:10063800000802403000002038000020340000206C
:10064800174A536923F4FC635361052827D8DFE868
:1006580000F003090F151B21114A536943F02003C9
:10066800536170470E4A536943F040035361704722
:100678000B4A536943F0800353617047084A536932
:1006880043F4807353617047054A536943F4007318
:1006980053617047024A536943F48063536170475A
:1006A80000000240024A536923F4FC635361704717
:1006B80000000240114B1B7813B1114B1B7803B992
:1006C800704710B5FFF77CFF04460E4B1A780E4BA7
:1006D80053F822200D4B1B68C31A934208D30C4BC6
:1006E8005B6913F4FC6F04D0FFF7DCFF074B1C6059
:1006F80010BD084B1878FFF7A3FFF7E704000020A8
:100708000500002028000020D4070008240000204D
:100718000000024029000020DFF834D00D480E49BF
:100728000E4A002302E0D458C4500433C4188C4243
:10073800F9D30B4A0B4C002301E013600432A242A8
:10074800FBD3FFF745FD00F011F8FFF74BFD7047AD
:10075800000002200000002008000020E807000830
:100768000800002040000020FEE7000070B50D4D95
:100778000D4C641BA4100026A64209D10B4D0C4C4D
:1007880000F018F8641BA4100026A64205D170BD1D
:1007980055F8043B98470136EEE755F8043B98476F
:1007A8000136F2E7E0070008E0070008E007000864
:1007B800E4070008F8B500BFF8BC08BC9E467047BF
:0C07C800F8B500BFF8BC08BC9E467047A6
:0C07D400C40900008D0300000E020000AC
:0407E000BD0100084F
:0407E400990100086F
:0807E8000024F40001010000EF
:0400000508000721C7
:00000001FF
