:020000040800F2
:10000000000002204D0400089D0400089D04000823
:100010009D0400089D0400089D04000800000000E5
:100020000000000000000000000000009D04000827
:100030009D040008000000009D0400089D040008C5
:100040009D0400089D0400089D0400089D0400080C
:100050009D0400089D0400089D0400089D040008FC
:100060009D0400089D0400089D0400089D040008EC
:100070009D0400089D0400089D0400089D040008DC
:100080009D0400089D0400089D0400080000000075
:100090000000000000000000000000009D040008B7
:1000A0009D0400089D0400089D0400089D040008AC
:1000B0009D0400089D0400089D0400089D0400089C
:1000C0009D0400089D0400089D0400089D0400088C
:1000D0009D0400089D0400089D0400080000000025
:1000E0009D0400089D0400089D0400080000000015
:1000F0000000000000000000000000009D04000857
:10010000000000009D0400089D0400089D040008F4
:1001100000000000000000000000000000000000DF
:100120009D0400089D0400089D0400089D0400082B
:100130009D04000800000000000000000000000016
:100140000000000000000000000000009D04000806
:100150009D0400089D0400089D0400089D040008FB
:100160009D0400089D04000800000000000000003D
:10017000000000000000000000000000000000007F
:10018000000000009D0400080000000000000000C6
:080190009D0400089D04000815
:1001980010B5054C237833B9044B13B10448AFF3B9
:1001A80000800123237010BD000000200000000023
:1001B800E804000808B5034B1BB103490348AFF333
:1001C800008008BD0000000004000020E8040008CA
:1001D800034AD2F8883043F47003C2F88830704775
:1001E80000ED00E082B00023019302E0019B01339F
:1001F8000193019B8342F9D302B07047074A136BFE
:1002080043F001031363064B1A6842F480621A60D4
:100218005A6822F020025A60704700BF0038024036
:1002280000000240014B20229A6170470000024002
:10023800154A136843F480731360134B5B6913F01A
:10024800010FFAD0104B18615B6913F4806F0FD15E
:1002580082B00D4B5B6913F0020FFAD00A4B9A6912
:1002680001921A6842F400721A60012002B07047C5
:10027800054B5A6922F480625A611A6842F4007286
:100288001A600020704700BF0054004010B483B0CB
:10029800144C236843F480732360124B5B6913F09A
:1002A800010FFAD00F4B18610E4B5B6913F0020F68
:1002B800FAD00C4B9869019019610A4B5B6913F0ED
:1002C800800FFAD0074B1A61064B5B6913F0040FD5
:1002D800FAD0044A136843F40073136003B05DF85E
:1002E800044B70470054004082B0214A136843F41D
:1002F800807313601E4B5B6913F0010FFAD01C4B1F
:1003080018611B4B5B6913F0020FFAD0184B9A69FE
:1003180001921961164B5B6913F0800FFAD0144AE9
:10032800136843F480731360114B5B6913F0010F7A
:10033800FAD040F001000E4B18610D4B5B6913F0C9
:10034800020FFAD00A4B9A6901921A6822F4806265
:100358001A601A6842F400721A60054B5B6913F060
:10036800400FFAD0024B1869C0B202B0704700BF04
:100378000054004010B5194B1A6B42F002021A6380
:100388001A6C42F400121A64A3F550531A6842F426
:1003980020421A605A6842F0C0025A60DA6842F491
:1003A800A042DA601A6A42F088421A620C4C23684A
:1003B80043F4004323604FF47A70FFF713FF236878
:1003C80023F400432360102363605023E361112367
:1003D8002362236843F00103236010BD0038024004
:1003E8000054004008B50D48FFF7FCFED020FFF789
:1003F8001FFF00B908BD00226B21D020FFF746FF80
:100408000648FFF7EFFE7521D020FFF76DFF68283B
:1004180001D10120EEE70020ECE700BFA086010033
:1004280008B5FFF7EBFEFFF7A5FF4FF47A70FFF76B
:10043800D9FEFFF7D7FF10B1FFF7F4FEFCE7FFF78F
:10044800F1FEFCE7DFF834D00D480E490E4A0023D0
:1004580002E0D458C4500433C4188C42F9D30B4A70
:100468000B4C002301E013600432A242FBD3FFF7D8
:10047800AFFE00F011F8FFF7D3FF7047000002202D
:1004880000000020000000200805000800000020EF
:100498001C000020FEE7000070B50D4D0D4C641BDC
:1004A800A4100026A64209D10B4D0C4C00F018F8F8
:1004B800641BA4100026A64205D170BD55F8043B64
:1004C80098470136EEE755F8043B98470136F2E7BE
:1004D80000050008000500080005000804050008DC
:1004E800F8B500BFF8BC08BC9E467047F8B500BF19
:0804F800F8BC08BC9E467047E9
:04050000BD01000831
:040504009901000851
:040000050800044D9E
:00000001FF
