:020000040800F2
:1000000000000220B90C0008090D0008090D0008C5
:10001000090D0008090D0008090D00080000000086
:10002000000000000000000000000000090D0008B2
:10003000090D000800000000090D0008A10B0008D0
:10004000090D0008090D0008090D0008090D000838
:10005000090D0008090D0008090D0008090D000828
:10006000090D0008090D0008090D0008090D000818
:10007000090D0008090D0008090D0008090D000808
:10008000090D0008090D0008090D00080000000016
:10009000000000000000000000000000090D000842
:1000A000090D0008090D0008090D0008090D0008D8
:1000B000090D0008090D0008090D0008090D0008C8
:1000C000090D0008090D0008090D0008090D0008B8
:1000D000090D0008090D0008090D000800000000C6
:1000E000090D0008090D0008090D000800000000B6
:1000F000000000000000000000000000090D0008E2
:1001000000000000090D0008090D0008090D000895
:1001100000000000000000000000000000000000DF
:10012000090D0008090D0008090D0008090D000857
:10013000090D0008000000000000000000000000A1
:10014000000000000000000000000000090D000891
:10015000090D0008090D0008090D0008090D000827
:10016000090D0008090D0008000000000000000053
:10017000000000000000000000000000000000007F
:1001800000000000090D0008000000000000000051
:08019000090D0008090D00082B
:1001A00001F0FF01102A2BDB10F0070F08D010F828
:1001B000013B013A8B422DD010F0070F42B3F6D12C
:1001C000F0B441EA012141EA014122F007047FF045
:1001D00000070023F0E80256083C85EA010586EA9C
:1001E000010685FA47F5A3FA87F586FA47F6A5FAD8
:1001F00087F68EB9EED1F0BC01F0FF0102F00702E4
:1002000032B110F8013B013A83EA010313B1F8D18E
:100210000020704701387047002D06BF354603386F
:10022000073815F0010F07D1013015F4807F02BFA8
:10023000013015F4C03F0130F0BC0138704700BFF9
:1002400081F0004102E000BF83F0004330B54FEA87
:1002500041044FEA430594EA050F08BF90EA020FF4
:100260001FBF54EA000C55EA020C7FEA645C7FEA87
:10027000655C00F0E2804FEA5454D4EB5555B8BFAA
:100280006D420CDD2C4480EA020281EA030382EA1B
:10029000000083EA010180EA020281EA0303362DAD
:1002A00088BF30BD11F0004F4FEA01314FF4801C80
:1002B0004CEA113102D0404261EB410113F0004F92
:1002C0004FEA03334CEA133302D0524263EB430349
:1002D00094EA050F00F0A780A4F10104D5F1200EE7
:1002E0000DDB02FA0EFC22FA05F2801841F1000142
:1002F00003FA0EF2801843FA05F359410EE0A5F116
:1003000020050EF1200E012A03FA0EFC28BF4CF046
:10031000020C43FA05F3C01851EBE37101F00045FC
:1003200007D54FF0000EDCF1000C7EEB00006EEB09
:100330000101B1F5801F1BD3B1F5001F0CD3490893
:100340005FEA30004FEA3C0C04F101044FEA4452EA
:1003500012F5800F80F09A80BCF1004F08BF5FEA71
:10036000500C50F1000041EB045141EA050130BD51
:100370005FEA4C0C404141EB0101013C28BFB1F563
:10038000801FE9D291F0000F04BF01460020B1FAAE
:1003900081F308BF2033A3F10B03B3F120020CDA81
:1003A0000C3208DD02F1140CC2F10C0201FA0CF05F
:1003B00021FA02F10CE002F11402D8BFC2F1200CC4
:1003C00001FA02F120FA0CFCDCBF41EA0C0190407A
:1003D000E41AA2BF01EB0451294330BD6FEA0404C3
:1003E0001F3C1CDA0C340EDC04F11404C4F12002AE
:1003F00020FA04F001FA02F340EA030021FA04F3C0
:1004000045EA030130BDC4F10C04C4F1200220FA16
:1004100002F001FA04F340EA0300294630BD21FA54
:1004200004F0294630BD94F0000F83F4801306BF1A
:1004300081F480110134013D4EE77FEA645C18BF0E
:100440007FEA655C29D094EA050F08BF90EA020FA5
:1004500005D054EA000C04BF1946104630BD91EA9D
:10046000030F1EBF0021002030BD5FEA545C05D1A0
:100470004000494128BF41F0004130BD14F58004DF
:100480003CBF01F5801130BD01F0004545F0FE4153
:1004900041F470014FF0000030BD7FEA645C1ABF88
:1004A000194610467FEA655C1CBF0B46024650EABF
:1004B000013406BF52EA033591EA030F41F40021EB
:1004C00030BD00BF90F0000F04BF0021704730B571
:1004D0004FF4806404F132044FF000054FF0000146
:1004E00050E700BF90F0000F04BF0021704730B507
:1004F0004FF4806404F1320410F0004548BF4042DC
:100500004FF000013EE700BF42004FEAE2014FEA30
:1005100031014FEA02701FBF12F07F4393F07F4F0B
:1005200081F06051704732F07F4208BF704793F00E
:100530007F4F04BF41F40021704730B54FF4607421
:1005400001F0004521F000411CE700BF50EA010224
:1005500008BF704730B54FF000050AE050EA0102CD
:1005600008BF704730B511F0004502D5404261EB3D
:1005700041014FF4806404F132045FEA915C3FF47E
:10058000D8AE4FF003025FEADC0C18BF03325FEA1B
:10059000DC0C18BF033202EBDC02C2F1200300FACC
:1005A00003FC20FA02F001FA03FE40EA0E0021FAF1
:1005B00002F11444BDE600BF10B5054C237833B9F1
:1005C000044B13B10448AFF300800123237010BD26
:1005D0005C00002000000000241C000808B5034B4C
:1005E0001BB103490348AFF3008008BD00000000C1
:1005F00060000020241C0008034AD2F8883043F42D
:100600007003C2F88830704700ED00E070B50C460A
:100610001646002506E0AFF30080214601F8010BE5
:1006200001350C46B542F6DB304670BD70B50C4660
:100630001646002504E014F8010B00F037FB0135E5
:10064000B542F8DB304670BD4FF0FF3070474FF4D5
:1006500000534B6000207047012070470020704716
:1006600010B503460C4A0D490D48006840B10C48CE
:1006700000680344521A934206D8094A136010BD19
:100680000748084C0460F2E700F098FD0C23036073
:100690004FF0FF30F3E700BF00000220000400002D
:1006A00078000020E801002000B58BB01E4800F063
:1006B00061FA00F09DFA00F03FF801238DF8223036
:1006C00000228DF820208DF823308DF824208DF81D
:1006D000213008A800F05EF905A800F015FA00F036
:1006E00067FA124B1B68C01AB0F5967FF4D90598CB
:1006F000FFF70AFF04460D460798FFF705FFCDE90F
:1007000002010698FFF700FFCDE9000122462B46C3
:10071000074800F0BDFB074800F022FC00F048FA53
:10072000024B1860D8E700BF0024F4007C000020D2
:100730003C1C0008601C0008194B1B78002B2ED1B4
:10074000184B1A6B42F002021A631A6C42F4001240
:100750001A64A3F550531A6842F420221A605A6AA8
:1007600042F044025A625A6842F440725A60A3F559
:10077000D8334FF400421A601A6822F400421A601B
:100780005A6842F032025A60D222DA612B221A628F
:100790001A6842F001021A60014B01221A70704778
:1007A000800000200038024010B4274B9B6913F0F2
:1007B000020FFAD1244C236843F480732360224B48
:1007C0005B6913F0010FFAD043001F4C23611E4BED
:1007D0005B6913F0020FFAD01B4B9B691A4B5B69E4
:1007E00013F0800FFAD0184B1961174B5B6913F0A7
:1007F000800FFAD014490B6843F480730B60124BDE
:100800005B6913F0010FFAD0400040F001000E4B7D
:1008100018610D4B5B6913F0020FFAD00A4B19688F
:1008200021F4806119609969196841F400711960B7
:10083000054B5B6913F0400FFAD0034B1B69137033
:1008400000205DF8044B70470054004010B41A4B70
:100850009B6913F0020FFAD1174C236843F480739D
:100860002360154B5B6913F0010FFAD04000124B67
:100870001861114B5B6913F0020FFAD00E4B9B69A4
:100880000D4B5B6913F0800FFAD00B4B19610A4BCB
:100890005B6913F0800FFAD0074B1A61064B5B6956
:1008A00013F0040FFAD0044A136843F40073136082
:1008B0005DF8044B704700BF0054004030B40C4654
:1008C0002F49896911F0020FFAD12D4D296841F4A1
:1008D000807129602A49496911F0010FFAD041005D
:1008E000274D29612649496911F0020FFAD02449A0
:1008F00089692349496911F0800FFAD020490C61B8
:100900001F49496911F0800FFAD01D4C216841F44C
:10091000807121601A49496911F0010FFAD0410034
:1009200041F00101164801611549496911F0020FB2
:10093000FAD013498869086840F480600860EAB119
:10094000012A0AD00E49496911F0400FFAD00C492A
:10095000096903F8011B013AF1E7094A116821F41A
:1009600080611160116841F400711160044A52699C
:1009700012F0400FFAD0024A12691A7030BC704768
:100980000054004008B5024619216820FFF75EFFB9
:1009900008BD000010B5044680226B216820FFF7D7
:1009A00055FF642000F00AF9227802F0070223794B
:1009B0009B0103F040031A436B216820FFF746FFB9
:1009C000642000F0FBF8E27802F007021A216820A8
:1009D000FFF73CFF6278D20002F018021B2168206A
:1009E000FFF734FFA278D20002F018021C21682021
:1009F000FFF72CFF0420FFF7C5FFA378032B06D8D1
:100A0000DFE803F0020C1014124B134A1A606378EB
:100A1000032B12D8DFE803F00E12161A0D4B0F4A03
:100A20001A60F4E70B4B0E4A1A60F0E7094B0D4AC7
:100A30001A60ECE70C4B0D4A1A6010BD0A4B0C4AC9
:100A40001A60FAE7084B0B4A1A60F6E7064B024AAF
:100A50001A60F2E79000002000007A3D0000FA3DA5
:100A600000007A3E0000FA3E8C0000200000FA3BB5
:100A700000007A3C0000FA3C10B584B004460DF149
:100A80000F023A216820FFF78FFE9DF80F300BB957
:100A900004B010BD02AB06223B216820FFF70EFF19
:100AA0009DF808209DF8093003EB022323809DF870
:100AB0000A209DF80B3003EB022363809DF80C2085
:100AC0009DF80D3003EB0223A3806B4606224321E1
:100AD0006820FFF7F3FE9DF800309DF8012002EB3F
:100AE0000322084B1A809DF802109DF8032002EBA8
:100AF00001225A809DF804109DF8052002EB012286
:100B00009A80C5E78400002010B582B0044668468C
:100B1000FFF7B2FFBDF9003007EE103AB8EEC77A22
:100B2000124BD3ED007A27EE277ADFED116A87EEBC
:100B3000266A84ED006ABDF9023007EE103AB8EE7D
:100B4000C77A27EE877A87EE266A84ED016ABDF9B7
:100B5000043007EE103AB8EEC77A67EE877A87EE70
:100B6000A67A84ED027A02B010BD00BF900000208A
:100B700000007A44094BA3FB00239B09013B4FF083
:100B8000E022536104231361136943F002031361EC
:100B9000136943F001031361704700BFD34D621026
:100BA000024A136801331360704700BF94000020AD
:100BB000014B1868704700BF9400002038B5054607
:100BC000FFF7F6FF0446FFF7F3FF001BA842FAD336
:100BD00038BD00EB5100B0FBF1F080B2704710B5AA
:100BE000044608461146FFF7F4FFA06010BD000060
:100BF00010B5244A136B43F001031363224B1968A9
:100C000021F010011960196841F020011960196A7A
:100C100041F480711962196A41F400711962196A0C
:100C200041F480611962196A21F40061196219683E
:100C300021F040011960196841F080011960196ABA
:100C400041F480511962196A41F400511962196A1C
:100C500041F480411962196A21F400411962136C50
:100C600043F400331364094C4FF4E1320849204641
:100C7000FFF7B5FF0C23E360E36843F40053E36040
:100C800010BD00BF00380240000002400044004098
:100C90000024F400044B1B6813F0800FFAD0C0B29C
:100CA000014B5860704700BF0044004010B5044637
:100CB000FFF7F0FF204610BDDFF834D00D480E4995
:100CC0000E4A002302E0D458C4500433C4188C42A6
:100CD000F9D30B4A0B4C002301E013600432A2420B
:100CE000FBD3FFF789FC00F06FFAFFF7DDFC7047DC
:100CF00000000220000000205C000020C41C00084E
:100D00005C000020E4010020FEE70000002310B595
:100D10000446C0E90033C0E904338360818143663F
:100D2000C2818361194608225C3000F0F9F90D4B4D
:100D300063620D4BA3620D4BE3620D4B23630D4BBE
:100D400024629C4206D003F16802944202D0D03360
:100D50009C4205D104F15800BDE8104000F058BA9B
:100D600010BD00BF710F0008930F0008CB0F0008E3
:100D7000EF0F000898000020024A0349034800F0E2
:100D800069B800BF00000020AD1A00081000002064
:100D900041680C4B994210B5044601D000F086FE24
:100DA000A168094B994202D0204600F07FFEE1681D
:100DB000064B994204D02046BDE8104000F076BEB4
:100DC00010BD00BF98000020000100206801002035
:100DD00010B50B4B0B4C0C4A1A6020460022042124
:100DE000FFF794FF04F1680001220921FFF78EFF4D
:100DF00004F1D0000222BDE810401221FFF786BFA7
:100E0000D001002098000020790D0008014800F072
:100E100000BA00BFD9010020014800F0FBB900BFB3
:100E2000D901002010B50446FFF7F0FF236A1BB17B
:100E3000BDE81040FFF7F0BF044B2362044B1B6872
:100E4000002BF5D1FFF7C4FFF2E700BF910D0008BA
:100E5000D00100202DE9F8430746884614460026B5
:100E6000D4E90195B9F1010905D52468002CF7D121
:100E70003046BDE8F883AB89012B07D9B5F90E30B0
:100E8000013303D029463846C04706436835E9E7B1
:100E90000FB407B5064904AB086853F8042B816802
:100EA000019300F0DBFA03B05DF804EB04B0704787
:100EB0000C000020036A70B5846805460E460BB925
:100EC000FFF7B0FF636EDB0705D4A389980502D452
:100ED000A06D00F09EF9A389190702D52369002BA4
:100EE00035D12146284600F0C5F880B34FF0FF35D4
:100EF000636EDA0705D4A3899B0502D4A06D00F0C8
:100F000089F9284670BD002B04DAA2699A4217DCE1
:100F10000A2915D023685A1C22601970A36816F894
:100F2000011F013BA3600029EDD1002B11DA2246FD
:100F30000A21284600F05FF80130D7D00A25D7E70C
:100F40002246284600F057F80130E7D1CEE7013EAF
:100F5000E4E723685A1C22600A221A70EEE70000B8
:100F6000024B01461868FFF7A5BF00BF0C00002028
:100F700010B50C46B1F90E1000F0FCF80028ABBF1C
:100F8000636DA3891B1823F48053ACBF6365A381F1
:100F900010BD2DE9F0411F468B89DB0505460C4647
:100FA000164605D5B1F90E100223002200F0D0F844
:100FB000A389B4F90E1023F48053A38132463B4633
:100FC0002846BDE8F04100F0E7B810B50C46B1F98D
:100FD0000E1000F0BDF8431CA38915BF606523F413
:100FE000805343F48053A38118BFA38110BDB1F98E
:100FF0000E1000F09DB8F8B50E461446054618B11F
:10100000036A0BB9FFF70EFFA369A360A3891A0750
:1010100001D5236943B92146284600F02BF818B1C1
:101020004FF0FF373846F8BD23682269981A636984
:10103000F6B28342374605DC2146284600F036FDED
:101040000028EDD1A368013BA36023685A1C2260ED
:101050001E706269431C9A4204D0A389DB07E1D564
:101060000A2EDFD12146284600F020FD0028D9D0E5
:10107000D6E7000038B5294B054618680C4618B16C
:10108000036A0BB9FFF7CEFEB4F90C30190722D46E
:10109000DA0607D409222A6043F04003A3814FF007
:1010A000FF3033E0580712D5616B41B104F14403BE
:1010B000994202D0284600F0AFF800236363A38969
:1010C00023F02403A3810023636023692360A389A1
:1010D00043F00803A38123694BB9A38903F4207368
:1010E000B3F5007F03D02146284600F02DFDB4F96A
:1010F0000C3013F001020AD00022A2606269524251
:10110000A261226942B913F08000C5D138BD9907A8
:1011100058BF6269A260F4E70020F7E70C000020E6
:1011200002440346934200D1704703F8011BF9E7DC
:1011300038B5064D0023044608462B60FFF784FAB5
:10114000431C02D12B6803B1236038BDD4010020B9
:1011500038B5074D04460846114600222A601A4653
:10116000FFF77CFA431C02D12B6803B1236038BD22
:10117000D401002038B5074D044608461146002228
:101180002A601A46FFF742FA431C02D12B6803B1CA
:10119000236038BDD401002038B5074D0446084609
:1011A000114600222A601A46FFF740FA431C02D17A
:1011B0002B6803B1236038BDD4010020014B1868AF
:1011C000704700BF0C00002070B50D4D0D4C641B26
:1011D000A4100026A64209D10B4D0C4C00F022FDB4
:1011E000641BA4100026A64205D170BD55F8043B2F
:1011F00098470136EEE755F8043B98470136F2E789
:10120000BC1C0008BC1C0008BC1C0008C01C00085A
:10121000704770477047000038B50546002941D037
:1012200051F8043C0C1F002BB8BFE41800F0E0F8A4
:101230001D4A136833B9636014602846BDE838401E
:1012400000F0DCB8A34208D9206821188B4201BF06
:1012500019685B6809182160EDE71A465B680BB1F5
:10126000A342FAD911685018A0420BD1206801445A
:10127000501883421160E0D118685B6853600844DD
:101280001060DAE702D90C232B60D6E7206821181A
:101290008B4204BF19685B68636004BF0918216052
:1012A0005460CAE738BD00BFE001002070B50F4EA2
:1012B0000C463168054611B900F0A4FC30602146A7
:1012C000284600F09FFC431C03D14FF0FF3420461A
:1012D00070BDC41C24F00304A042F8D0211A284693
:1012E00000F090FC0130F2D1EFE700BFDC010020FC
:1012F0002DE9F843CD1C25F0030508350C2D38BF2A
:101300000C25002D064601DBA94204D90C233360CD
:101310000020BDE8F883DFF8D48000F069F8D8F841
:1013200000301C4644BB29463046FFF7BFFF431C34
:10133000044658D1D8F800402746002F43D1002C4E
:101340004BD023683946304604EB030900F05AFCC1
:10135000814542D121686D1A29463046FFF7A6FF24
:1013600001303AD023682B442360D8F800305A6803
:1013700062BBC8F800700FE02268521B20D40B2A11
:1013800017D96119A342256018BF5960636808BF67
:10139000C8F8001062514B60304600F02FF804F19D
:1013A0000B00231D20F00700C21A1CBF1B1AA350FC
:1013B000AFE76268A3420CBFC8F800205A60EBE7B1
:1013C00023466468AEE73C467F68B6E71A465B682A
:1013D000A342FBD100235360DEE70C233360304689
:1013E00000F00CF894E70560D6E700BFE0010020AC
:1013F0000148FFF70EBF00BFD80100200148FFF7EA
:1014000009BF00BFD80100209368013B002B10B436
:10141000936008DA9469A34201DB0A2903D15DF8DD
:10142000044BFFF7E8BD1368581C1060197008469C
:101430005DF8044B7047F8B506460F461446D518BC
:10144000AC4201D1002007E014F8011B3A463046B7
:10145000FFF7DAFF431CF3D1F8BD00002DE9F04F90
:101460000D469DB014469846064618B1036A0BB95E
:10147000FFF7D8FC6B6ED90705D4AB899A0502D467
:10148000A86DFFF7C6FEAB891B0701D52B699BB979
:1014900029463046FFF7EEFD70B16B6EDC0704D5D0
:1014A0004FF0FF301DB0BDE8F08FAB899805F7D441
:1014B000A86DFFF7AFFEF3E70023099320238DF813
:1014C0002930CDF80C803023DFF8AC818DF82A303C
:1014D0004FF0010923469A4613F8012B0AB1252A39
:1014E000F9D1BAEB040B0BD05B46224629463046B5
:1014F000FFF7A1FF013000F0A780099A5A44099232
:101500009AF80030002B00F09F8000234FF0FF324C
:10151000CDE905230AF1010A049307938DF85330AE
:101520001A935446052214F8011B5348FEF738FE5F
:10153000049AD8B9D10644BF20238DF8533013073D
:1015400044BF2B238DF853309AF800302A2B15D046
:10155000079A544600204FF00A0C214611F8013B2F
:10156000303B092B4BD9B0B1079214E0A0EB080334
:1015700009FA03F313430493A246D2E7039B191D10
:101580001B680391002BBBBF5B4242F00202079332
:101590000793B8BF049223782E2B0AD163782A2BA5
:1015A00032D1039B1A1D1B68039243EAE373023492
:1015B0000593DFF8D4A0217803225046FEF7F0FD12
:1015C00038B1049BA0EB0A0040228240134301344F
:1015D000049314F8011B29488DF828100622FEF701
:1015E000DFFD00283FD0264B1BBB039B073323F0B6
:1015F000070308330393099B3B4409936AE70CFBF9
:1016000002320C460120A8E7002301340593194655
:101610004FF00A0C204610F8012B303A092A03D962
:10162000002BC6D00591C4E70CFB01210446012321
:10163000F0E703AB00932A46124B04A93046AFF300
:1016400000800746781CD6D16B6ED90705D4AB89CC
:101650009A0502D4A86DFFF7DDFDAB895B063FF567
:101660001FAF09981EE703AB00932A46054B04A958
:10167000304600F079F8E4E7801C00088A1C000876
:101680000000000037140008861C00082DE9F04710
:10169000164698468A680B69DDF820909342B8BFD9
:1016A0001346336091F8432007460C460AB10133D4
:1016B00033602368990642BF33680233336025687C
:1016C00015F0060506D104F1190AE36832689B1A81
:1016D000AB4226DC94F843302268003B18BF01235C
:1016E00092062BD404F1430241463846C8470130E4
:1016F0001ED02368226903F00603042B02BFE568AD
:101700003368ED1AA3680CBF25EAE57500259342FE
:10171000C4BF9B1AED1800261A34B5421AD1002016
:1017200008E00123524641463846C847013003D1FC
:101730004FF0FF30BDE8F0870135C6E7E1185A1CCD
:10174000302081F84300224494F8451082F8431079
:101750000233C7E70123224641463846C8470130D5
:10176000E6D00136D9E700002DE9FF470F7E0C9E39
:10177000782F914680460C469A4601F1430207D8DD
:10178000622F0AD8002F00F0D180582F00F0B880C7
:1017900004F1420684F842703AE0A7F16303152B86
:1017A000F6D801A151F823F0011800081518000817
:1017B0009117000891170008911700089117000869
:1017C00015180008911700089117000891170008D4
:1017D00091170008131900083F180008CD180008D9
:1017E0009117000891170008351900089117000893
:1017F0003F1800089117000891170008D518000835
:1018000033681A1D1B68326004F1420684F84230C6
:1018100001239CE033682068191D3160060601D55C
:101820001D6803E04506FBD5B3F90050002D03DA2F
:101830002D236D4284F8433058480A2311E0216873
:101840003368080653F8045B02D4490648BFADB2BA
:101850006F2F5248336014BF0A230823002184F8F5
:1018600043106668A660002E05DB21682E4321F038
:10187000040121604BD01646B5FBF3F103FB115771
:10188000C75D06F8017D2F46BB420D46F4D9082BF3
:101890000BD12368DF0708D5236961689942DEBF51
:1018A000302306F8013C06F1FF36921B2261CDF889
:1018B00000A04B4603AA21464046FFF7E7FE013051
:1018C0004AD14FF0FF3004B0BDE8F087236843F001
:1018D000200323603248782784F8457023683168F4
:1018E0001F0651F8045B02D45F0648BFADB23160F9
:1018F000D90744BF43F0200323601DB11023ADE797
:101900002648E9E7236823F020032360F6E716461C
:10191000BDE7336825686169181D30602E061B68B5
:1019200001D5196002E06806FBD519800023236108
:101930001646BCE733681A1D32601E6862680021D3
:101940003046FEF72DFC08B1801B606063682361A0
:10195000002384F84330AAE72369324649464046CB
:10196000D0470130ADD023689B0713D4E068039BB8
:101970009842B8BF1846A6E701233246494640467A
:10198000D04701309DD00135E36803995B1AAB4223
:10199000F2DCEBE7002504F11906F5E7911C0008DD
:1019A000A21C0008B1F90C202DE9F04116070546EC
:1019B0000C4654D44B68002B02DC0B6C002B48DD2A
:1019C000E66A002E45D0002312F480522F68216A67
:1019D0002B6030D0626DA389590705D56368D21A90
:1019E000636B0BB1236CD21A0023E66A216A284686
:1019F000B047431CA38906D129681D292BD82A4A40
:101A0000CA40D60727D500226260D9042269226025
:101A100004D5421C01D12B6803B96065616B2F604E
:101A2000B9B104F14403994202D02846FFF7F4FB10
:101A3000002363630DE001232846B0470246501C93
:101A4000C9D12B68002BC6D01D2B01D0162B1ED15F
:101A50002F60002022E043F040031BB21BE00F691F
:101A6000002FF6D093070E6808BF4B690F6018BFB0
:101A70000023A6EB07088B60B8F1000FE9DD216AAF
:101A8000A66A43463A462846B047002808DCB4F91F
:101A90000C3043F04003A3814FF0FF30BDE8F081EC
:101AA0000744A8EB0008E7E70100402038B50B69C0
:101AB00005460C4613B90025284638BD18B1036AFF
:101AC0000BB9FFF7AFF9B4F90C30002BF3D0626E0D
:101AD000D00704D4990502D4A06DFFF79AFB2846DD
:101AE0002146FFF75FFF636EDA070546E4D4A3895A
:101AF0009B05E1D4A06DFFF78DFBDDE770B50C46CB
:101B0000B1F90E10002996B015461E460DDAA389CC
:101B100013F0800F4FF0000114BF40234FF4806397
:101B2000002031602B6016B070BD6A4600F048F8A6
:101B30000028ECDB019901F47041A1F500535942F2
:101B400059414FF48063EBE78B89F7B59D07064653
:101B50000C4607D504F14703236023610123636129
:101B600003B0F0BD01AB6A46FFF7C8FF009F054612
:101B700039463046FFF7BCFB48B9B4F90C309A053A
:101B8000EED423F0030343F00203A381E2E7A38929
:101B9000206043F08003A381019BC4E904075BB18B
:101BA000B4F90E10304600F01DF828B1A38923F0D7
:101BB000030343F00103A381A3891D43A581CFE75C
:101BC00038B5074D00230446084611462B60FEF742
:101BD0003EFD431C02D12B6803B1236038BD00BF1A
:101BE000D401002038B5064D0023044608462B607A
:101BF000FEF732FD431C02D12B6803B1236038BDD0
:101C0000D401002038B5064D0023044608462B6059
:101C1000FEF726FD431C02D12B6803B1236038BDBB
:101C2000D4010020F8B500BFF8BC08BC9E46704740
:0C1C3000F8B500BFF8BC08BC9E46704729
:101C3C00416363656C3A2058203D20252E32662086
:101C4C0059203D20252E3266205A203D20252E324B
:101C5C00660D0A003D3D3D3D3D3D3D3D3D3D3D3D1F
:101C6C003D3D3D3D3D3D3D3D3D3D3D3D3D3D3D3D98
:101C7C003D3D0D00232D302B2000686C4C0065661B
:101C8C0067454647003031323334353637383941C1
:101C9C0042434445460030313233343536373839D7
:081CAC006162636465660000DB
:081CB400ECE4FF7F01000000D9
:041CBC00DD0500083A
:041CC000B90500085A
:101CC4000000000003000000980000201000002025
:101CD400000000009800002000010020680100209E
:101CE40000000000000000000000000000000000F0
:101CF40000000000000000000000000000000000E0
:101D040000000000000000000000000000000000CF
:0C1D1400000000000000000000000000C3
:0400000508000CB92A
:00000001FF
