:020000040800F2
:10000000000002201D0600086D0600086D060008AD
:100010006D0600086D0600086D060008000000006F
:100020000000000000000000000000006D06000855
:100030006D060008000000006D0600086D0600084F
:100040006D0600086D0600086D0600086D060008C4
:100050006D0600086D0600086D0600086D060008B4
:100060006D0600086D0600086D0600086D060008A4
:100070006D0600086D0600086D0600086D06000894
:100080006D0600086D0600086D06000800000000FF
:100090000000000000000000000000006D060008E5
:1000A0006D0600086D0600086D0600086D06000864
:1000B0006D0600086D0600086D0600086D06000854
:1000C0006D0600086D0600086D0600086D06000844
:1000D0006D0600086D0600086D06000800000000AF
:1000E0006D0600086D0600086D060008000000009F
:1000F0000000000000000000000000006D06000885
:10010000000000006D0600086D0600086D0600087E
:1001100000000000000000000000000000000000DF
:100120006D0600086D0600086D0600086D060008E3
:100130006D06000800000000000000000000000044
:100140000000000000000000000000006D06000834
:100150006D0600086D0600086D0600086D060008B3
:100160006D0600086D060008000000000000000099
:10017000000000000000000000000000000000007F
:10018000000000006D0600080000000000000000F4
:080190006D0600086D06000871
:1001980010B5054C237833B9044B13B10448AFF3B9
:1001A80000800123237010BD000000200000000023
:1001B800B806000808B5034B1BB103490348AFF361
:1001C800008008BD0000000004000020B8060008F8
:1001D800034AD2F8883043F47003C2F88830704775
:1001E80000ED00E02DE9F04700F062F900F0A8F911
:1001F80000F052F90025A9462E46A84601274FF0DF
:10020800FF341EE1A04800F0F9F9A04BD3F81038EC
:1002180013F4806F00F01D81002F40F01A81631CD9
:100228009B4A82FB0312DC17C4EB620404EB8404D0
:100238001C1B01270DE1974A136843F00403136060
:10024800944B1B6813F00C0F7AD1904BD3F81034F1
:1002580013F0020F7AD0DFF834A22023CAF818303E
:10026800894800F0CBF9DAF8103413F0020F03D004
:10027800B8F1000F00F09580844B4FF400129A619A
:1002880064E0844A136843F010031360D8E7814A96
:10029800136843F040031360D2E77E4B1A6822F0DC
:1002A8000C021A601A6822F030021A601A6822F0EA
:1002B800C0021A60C4E7774B1A6842F004021A6059
:1002C8001A6842F010021A601A6842F040021A6076
:1002D8000135EDB2B4E7042CB2D8DFE804F0030925
:1002E8000F1523006B4A136823F00C031360A7E76C
:1002F800684A136823F030031360A1E7654A13685E
:1003080023F0C00313609BE7624B1A6822F00C02CB
:100318001A601A6822F030021A601A6822F0C002C5
:100328001A608DE75B4B1A6842F004021A601A687B
:1003380042F010021A601A6842F040021A607FE721
:10034800524B4FF400129A614FF00008514B1B6852
:1003580003F00C03042B27D04C4B4FF40032C3F8A6
:1003680018244C4B1B6813F0300F22D1474BD3F89D
:10037800103413F0040F21D0DFF810A14FF480637C
:10038800CAF81830404800F039F9DAF8103413F098
:10039800040F01D0002E3DD03C4B4FF080629A6193
:1003A8000CE04FF00108D1E7384B0222C3F81824BB
:1003B800D7E7364B4FF080629A610026354B1B68B1
:1003C80003F03003102B27D0304B4FF48022C3F8B2
:1003D8001824304B1B6813F0C00F22D12B4BD3F8D5
:1003E800103413F0080F21D0DFF8A0A04FF40063F9
:1003F800CAF81830244800F001F9DAF8103413F07C
:10040800080F02D0B9F1000F36D0204B4FF0006230
:100418009A610BE00126D1E71C4B0422C3F818248B
:10042800D7E71A4B4FF000629A610026194B1B68F8
:1004380003F0C003402B22D0144B4FF40022C3F822
:100448001824124BD3F8103813F4806F7FF4DAAE07
:100458000027002D7FF43FAF042C3FF6F1AE01A337
:1004680053F824F03F0200088B02000897020008A6
:10047800A3020008BF0200084FF00109D6E7034BAA
:100488000822C3F81824DCE7E093040000000240C7
:100498006766666600040240044B1A6842F48002EC
:1004A8001A609A6842F440029A607047000002405D
:1004B800214A136B43F007031363204B1A6822F099
:1004C8000C021A60DA6822F00C02DA60DA6842F08C
:1004D8000402DA601A6822F030021A60DA6822F040
:1004E8003002DA60DA6842F01002DA601A6822F044
:1004F800C0021A60DA6822F0C002DA60DA6842F0F4
:100508004002DA6003F580631A6822F440121A6028
:10051800DA6822F44012DA60DA6842F48012DA60AB
:10052800A3F500631A6822F440621A601A6842F45C
:1005380080621A60704700BF003802400004024021
:100548002B4AD2F8303843F00703C2F83038294B29
:10055800D3F8002422F00C01C3F8001422F03C0167
:10056800C3F8001422F0FC02C3F80024D3F80028D2
:1005780022F44012C3F800281F490A6822F00C022E
:100588000A60086820F0300008600243086820F01C
:10059800C00008600243C3F8002401F580610A68BE
:1005A80022F440120A60D3F80C2422F00C01C3F89C
:1005B8000C1422F03C01C3F80C1422F0FC02C3F81E
:1005C8000C24D3F80C1821F44011C3F80C1842F08D
:1005D8005402C3F80C2441F48011C3F80C181A68AB
:1005E80042F480121A609A6842F440129A60704786
:1005F80000300240000002400004024082B0019036
:1006080002E0019B013B0193019B002BF9D102B051
:1006180070470000DFF834D00D480E490E4A002319
:1006280002E0D458C4500433C4188C42F9D30B4A9E
:100638000B4C002301E013600432A242FBD3FFF706
:10064800C7FD00F011F8FFF7CDFD7047000002204C
:100658000000002000000020D8060008000000204C
:100668001C000020FEE7000070B50D4D0D4C641B0A
:10067800A4100026A64209D10B4D0C4C00F018F826
:10068800641BA4100026A64205D170BD55F8043B92
:1006980098470136EEE755F8043B98470136F2E7EC
:1006A800D0060008D0060008D0060008D4060008C6
:1006B800F8B500BFF8BC08BC9E467047F8B500BF47
:0806C800F8BC08BC9E46704717
:0406D000BD01000860
:0406D4009901000880
:040000050800061DCC
:00000001FF
