:020000040800F2
:1000000000000220C10300081104000811040008C8
:100010001104000811040008110400080000000089
:1000200000000000000000000000000011040008B3
:100030001104000800000000110400081104000869
:10004000110400081104000811040008110400083C
:10005000110400081104000811040008110400082C
:10006000110400081104000811040008110400081C
:10007000110400081104000811040008110400080C
:100080001104000811040008110400080000000019
:100090000000000000000000000000001104000843
:1000A00011040008110400081104000811040008DC
:1000B00011040008110400081104000811040008CC
:1000C00011040008110400081104000811040008BC
:1000D00011040008110400081104000800000000C9
:1000E0008903000811040008110400080000000042
:1000F00000000000000000000000000011040008E3
:100100000000000011040008110400081104000898
:1001100000000000000000000000000000000000DF
:10012000110400081104000811040008110400085B
:1001300011040008000000000000000000000000A2
:100140000000000000000000000000001104000892
:10015000110400081104000811040008110400082B
:100160001104000811040008000000000000000055
:10017000000000000000000000000000000000007F
:100180000000000011040008000000000000000052
:0801900011040008110400082D
:1001980010B5054C237833B9044B13B10448AFF3B9
:1001A80000800123237010BD000000200000000023
:1001B8005C04000808B5034B1BB103490348AFF3BF
:1001C800008008BD00000000040000205C04000856
:1001D800034AD2F8883043F47003C2F88830704775
:1001E80000ED00E008B500F097F800F035F800F0F1
:1001F800C7F803E0064B4FF480629A61054B1B7801
:10020800002BF7D1024B4FF080629A61F6E700BFEE
:10021800000002401C00002000B500F00700C0F1FB
:10022800070CBCF1040F28BF4FF0040C031D062B6C
:100238000FD9C31E4FF0FF3E0EFA0CF021EA000161
:1002480099400EFA03FE22EA0E0241EA02005DF826
:1002580004FB0023EEE700002C4AD2F8303843F0C4
:100268000303C2F830382A4BD3F8002422F00C01DB
:10027800C3F8001422F03C01C3F8001422F0FC017A
:10028800C3F8001422F4403222F0FC02C3F8002420
:1002980020490A6822F00C020A60086820F0300041
:1002A80008600243086820F0C0000860024308683C
:1002B80020F4403008600243C3F80024D3F80C242B
:1002C80022F00C01C3F80C1422F03C01C3F80C1402
:1002D80022F0FC01C3F80C1422F4403222F0FC0294
:1002E800C3F80C2442F4803242F05402C3F80C24C0
:1002F8001A6842F48061196042F4A00242F48062F4
:100308001A609A6842F470029A607047003002409E
:10031800000002400004024008B5154A536C43F43B
:1003280080435364A2F58032936823F0F00343F0CE
:10033800100393600F4B1A6842F002021A609A6821
:1003480042F002029A60DA6842F00202DA600A4B6E
:10035800D86800221146C0F30220FFF75DFF0001B4
:10036800C0B2064B83F8070380221A6008BD00BF9D
:1003780000380240003C014000ED00E000E100E0F0
:100388000A4A13780133DBB21370012B08D9084AE3
:100398001378B3FA83F35B091370044B00221A70C5
:1003A800044A536943F00203536170471D0000205B
:1003B8001C000020003C0140DFF834D00D480E49F5
:1003C8000E4A002302E0D458C4500433C4188C42A7
:1003D800F9D30B4A0B4C002301E013600432A2420C
:1003E800FBD3FFF7F5FE00F011F8FFF7FBFE7047AF
:1003F8000000022000000020000000207C0400080B
:100408000000002020000020FEE7000070B50D4D20
:100418000D4C641BA4100026A64209D10B4D0C4CB0
:1004280000F018F8641BA4100026A64205D170BD80
:1004380055F8043B98470136EEE755F8043B9847D2
:100448000136F2E774040008740400087404000814
:1004580078040008F8B500BFF8BC08BC9E46704791
:0C046800F8B500BFF8BC08BC9E46704709
:04047400BD010008BE
:0404780099010008DE
:04000005080003C12B
:00000001FF
