:020000040800F2
:100000000000022029030008790300087903000892
:100010007903000879030008790300080000000054
:10002000000000000000000000000000790300084C
:100030007903000800000000790300087903000834
:1000400079030008790300087903000879030008A0
:100050007903000879030008790300087903000890
:100060007903000879030008790300087903000880
:100070007903000879030008790300087903000870
:1000800079030008790300087903000800000000E4
:1000900000000000000000000000000079030008DC
:1000A0007903000879030008790300087903000840
:1000B0007903000879030008790300087903000830
:1000C0007903000879030008790300087903000820
:1000D0007903000879030008790300080000000094
:1000E0007903000879030008790300080000000084
:1000F000000000000000000000000000790300087C
:100100000000000079030008790300087903000863
:1001100000000000000000000000000000000000DF
:1001200079030008790300087903000879030008BF
:10013000790300080000000000000000000000003B
:10014000000000000000000000000000790300082B
:10015000790300087903000879030008790300088F
:100160007903000879030008000000000000000087
:10017000000000000000000000000000000000007F
:1001800000000000790300080000000000000000EB
:0801900079030008790300085F
:1001980010B5054C237833B9044B13B10448AFF3B9
:1001A80000800123237010BD000000200000000023
:1001B800C403000808B5034B1BB103490348AFF358
:1001C800008008BD0000000004000020C4030008EF
:1001D800034AD2F8883043F47003C2F88830704775
:1001E80000ED00E04B4A136B43F0030313634A4BE3
:1001F8001A6822F440321A60DA6822F44032DA606F
:10020800DA6842F48032DA601A6822F00C021A6066
:10021800DA6822F00C02DA60DA6842F00402DA6086
:100228001A6822F030021A60DA6822F03002DA60C6
:10023800DA6842F01002DA60384A116821F4406145
:100248001160116841F480611160116821F4400166
:100258001160116841F480011160516821F4006156
:100268005160916821F440019160916841F4000166
:100278009160D16821F44001D160196821F44021CE
:100288001960196841F480211960596821F40071D6
:100298005960996821F440219960996841F40021D6
:1002A8009960D96821F44021D960136823F4401378
:1002B8001360136843F480131360536823F4806356
:1002C8005360936823F440139360936843F40013D6
:1002D8009360D36823F44013D3600AE00F4B2022C5
:1002E8009A614FF400629A614FF480629A610A4BF6
:1002F8001B69094B1B6913F4807FEFD0074B4FF440
:1003080000129A614FF000629A614FF080629A6120
:10031800EDE700BF00380240000402400000024040
:10032800DFF834D00D480E490E4A002302E0D458B5
:10033800C4500433C4188C42F9D30B4A0B4C002325
:1003480001E013600432A242FBD3FFF741FF00F043
:1003580011F8FFF747FF7047000002200000002057
:1003680000000020E4030008000000201C0000201A
:10037800FEE7000070B50D4D0D4C641BA41000265F
:10038800A64209D10B4D0C4C00F018F8641BA410C0
:100398000026A64205D170BD55F8043B98470136A2
:1003A800EEE755F8043B98470136F2E7DC0300080E
:1003B800DC030008DC030008E0030008F8B500BF10
:1003C800F8BC08BC9E467047F8B500BFF8BC08BC2E
:0403D8009E46704786
:0403DC00BD01000857
:0403E0009901000877
:0400000508000329C3
:00000001FF
