:020000040800F2
:100000000000022035070008850700088507000862
:100010008507000885070008850700080000000024
:10002000000000000000000000000000850700083C
:100030008507000800000000850700088507000804
:100040008507000885070008850700088507000860
:100050008507000885070008850700088507000850
:100060008507000885070008850700088507000840
:100070008507000885070008850700088507000830
:1000800085070008850700088507000800000000B4
:1000900000000000000000000000000085070008CC
:1000A0008507000885070008850700088507000800
:1000B00085070008850700088507000885070008F0
:1000C00085070008850700088507000885070008E0
:1000D0008507000885070008850700080000000064
:1000E0008507000885070008850700080000000054
:1000F000000000000000000000000000850700086C
:100100000000000085070008850700088507000833
:1001100000000000000000000000000000000000DF
:10012000850700088507000885070008850700087F
:10013000850700080000000000000000000000002B
:10014000000000000000000000000000850700081B
:10015000850700088507000885070008850700084F
:100160008507000885070008000000000000000067
:10017000000000000000000000000000000000007F
:1001800000000000850700080000000000000000DB
:0801900085070008850700083F
:1001980010B5054C237833B9044B13B10448AFF3B9
:1001A80000800123237010BD08000020000000001B
:1001B800D007000808B5034B1BB103490348AFF348
:1001C800008008BD000000000C000020D0070008D7
:1001D800034AD2F8883043F47003C2F88830704775
:1001E80000ED00E008B500F0EFF900F035FA00F096
:1001F800DFF985E19C4800F08DFA9C4BD3F8103864
:1002080013F4806F00F08681994B1B78002B40F027
:100218008181984802680132974981FB0231D317DE
:10022800C3EB610303EB8303D31A0360904B0122F2
:100238001A706FE1914A136843F0040313608F4BFF
:100248001B6813F00C0F40F08580884BD3F81034EE
:1002580013F0020F00F08580844C2023A3618248AC
:1002680000F058FA4FF40033C4F81834D4F81034B6
:1002780013F0020F69D0824B1B78002B65D1804B9D
:1002880001221A706DE07D4A136843F01003136071
:10029800D5E77A4A136843F040031360CFE7774BFA
:1002A8001A6822F00C021A601A6822F030021A60EA
:1002B8001A6822F0C0021A60C1E7704A116841F05A
:1002C80004011160116841F010011160116841F0DA
:1002D8004001116001336B4A1370B0E7654B1B682E
:1002E800042BACD8DFE803F003090F152300634A99
:1002F800136823F00C031360A1E7604A136823F026
:10030800300313609BE75D4A136823F0C003136052
:1003180095E75A4B1A6822F00C021A601A6822F004
:1003280030021A601A6822F0C0021A6087E7534B3D
:100338001A6842F004021A601A6842F010021A6041
:100348001A6842F040021A6079E7484B4FF40012ED
:100358009A6106E04A4B00221A70444B4FF400128F
:100368009A61464B1B6803F00C03042B21D0434BC6
:100378001B6813F0300F47D13C4BD3F8103413F0FF
:10038800040F48D0394C4FF48063A361364800F01D
:10039800C1F94FF48023C4F81834D4F8103413F09A
:1003A800040F2CD0384B1B784BBB374B01221A70EB
:1003B80031E02E4B0222C3F81824D3F8103413F07E
:1003C800020F07D12E4B00221A70284B4FF400124F
:1003D8009A61CCE7244800F09DF9244BD3F81034F7
:1003E80013F0020FC3D0264B1B78002BBFD1244B30
:1003F80001221A701D4B0222C3F81824B7E71B4BC1
:100408004FF080629A6106E01F4B00221A70174B6A
:100418004FF080629A61194B1B6803F03003102B70
:1004280036D0164B1B6813F0C00F5CD10F4BD3F8B6
:10043800103413F0080F5DD00C4C4FF40063A36127
:10044800094800F067F94FF40023C4F81834D4F8C9
:10045800103413F0080F41D00C4B1B78002B3DD102
:100468000A4B01221A7045E0E093040000000240A4
:100478000000002004000020676666660004024051
:10048800270000202400002026000020250000204E
:100498003F4B0422C3F81824D3F8103413F0040F88
:1004A80007D13C4B00221A70394B4FF080629A6199
:1004B800B7E7394800F02EF9354BD3F8103413F06C
:1004C800040FAED0334B1B78002BAAD1314B01223D
:1004D8001A702F4B0422C3F81824A2E72C4B4FF0B4
:1004E80000629A6106E02B4B00221A70284B4FF0ED
:1004F80000629A61294B1B6803F0C003402B21D08E
:10050800234BD3F8103813F4806F7FF473AE244B69
:1005180000221A70234B1B78002B7FF4DFAE224A8F
:100528001268042A3FF68BAE01A151F822F000BFF1
:100538003D0200088F0200089B020008A70200087D
:10054800C3020008124B0822C3F81824D3F8103449
:1005580013F0080F14D0104800F0DCF80C4BD3F857
:10056800103413F0080FCBD0104B1B78002BC7D1D9
:100578000E4B01221A70064B0822C3F81824BFE755
:100588000A4B00221A70024B4FF000629A61B7E7DB
:100598000000024026000020E0930400000402400E
:1005A8000000002024000020040000202500002076
:1005B800044B1A6842F480021A609A6842F44002B6
:1005C8009A60704700000240214A136B43F007030A
:1005D8001363204B1A6822F00C021A60DA6822F0C2
:1005E8000C02DA60DA6842F00402DA601A6822F073
:1005F80030021A60DA6822F03002DA60DA6842F013
:100608001002DA601A6822F0C0021A60DA6822F072
:10061800C002DA60DA6842F04002DA6003F580630B
:100628001A6822F440121A60DA6822F44012DA607A
:10063800DA6842F48012DA60A3F500631A6822F4DB
:1006480040621A601A6842F480621A60704700BFFC
:1006580000380240000402402B4AD2F8303843F0F8
:100668000703C2F83038294BD3F8002422F00C01D4
:10067800C3F8001422F03C01C3F8001422F0FC0275
:10068800C3F80024D3F8002822F44012C3F8002845
:100698001F490A6822F00C020A60086820F030003E
:1006A80008600243086820F0C00008600243C3F8ED
:1006B800002401F580610A6822F440120A60D3F828
:1006C8000C2422F00C01C3F80C1422F03C01C3F8EE
:1006D8000C1422F0FC02C3F80C24D3F80C1821F4F3
:1006E8004011C3F80C1842F05402C3F80C2441F42A
:1006F8008011C3F80C181A6842F480121A609A68BC
:1007080042F440129A6070470030024000000240F4
:100718000004024082B0019002E0019B013B01937A
:10072800019B002BF9D102B070470000DFF834D0EC
:100738000D480E490E4A002302E0D458C450043331
:10074800C4188C42F9D30B4A0B4C002301E0136008
:100758000432A242FBD3FFF73BFD00F011F8FFF78C
:1007680041FD704700000220000000200800002022
:10077800F00700080800002028000020FEE700001D
:1007880070B50D4D0D4C641BA4100026A64209D16E
:100798000B4D0C4C00F018F8641BA4100026A64260
:1007A80005D170BD55F8043B98470136EEE755F87A
:1007B800043B98470136F2E7E8070008E807000815
:1007C800E8070008EC070008F8B500BFF8BC08BC4B
:1007D8009E467047F8B500BFF8BC08BC9E467047F7
:0407E800BD01000847
:0407EC009901000867
:0807F00001000000FFFFFFFF04
:0400000508000735B3
:00000001FF
